:100000000C9435000C945D000C945D000C945D0024
:100010000C945D000C945D000C945D000C945D00EC
:100020000C945D000C945D000C945D000C945D00DC
:100030000C945D000C945D000C940F020C945D0018
:100040000C945D000C945D000C94DD010C94B701E0
:100050000C945D000C945D000C945D000C945D00AC
:100060000C945D000C945D007B0311241FBECFEF48
:10007000D8E0DEBFCDBF11E0A0E0B1E0ECE9FDE0EB
:1000800002C005900D92AE35B107D9F722E0AEE57A
:10009000B1E001C01D92A730B207E1F710E0C5E35F
:1000A000D0E004C02197FE010E94C606C433D107E8
:1000B000C9F70E94A8030C94CC060C940000AF92E0
:1000C000BF92CF92DF92EF92FF920F931F93CF9345
:1000D000DF936C017B018B01040F151FEB015E01A7
:1000E000AE18BF08C017D10759F06991D601ED913C
:1000F000FC910190F081E02DC6010995892B79F7DB
:10010000C501DF91CF911F910F91FF90EF90DF908C
:10011000CF90BF90AF900895FC01538D448D252F53
:1001200030E0842F90E0821B930B541710F0CF9691
:10013000089501970895FC01918D828D981761F0C3
:10014000A28DAE0FBF2FB11D5D968C91928D9F5FDA
:100150009F73928F90E008958FEF9FEF0895FC01B9
:10016000918D828D981731F0828DE80FF11D858D6C
:1001700090E008958FEF9FEF0895FC01918D228DFF
:10018000892F90E0805C9F4F821B91098F73992784
:100190000895FC01A48DA80FB92FB11DA35ABF4F1C
:1001A0002C91848D90E001968F739927848FA68976
:1001B000B7892C93A089B1898C91837080648C93CA
:1001C000938D848D981306C00288F389E02D808179
:1001D0008F7D80830895EF92FF920F931F93CF93AB
:1001E000DF93EC0181E0888F9B8D8C8D98131AC072
:1001F000E889F989808185FF15C09FB7F894EE8959
:10020000FF896083E889F9898081837080648083B5
:100210009FBF81E090E0DF91CF911F910F91FF9000
:10022000EF900895F62E0B8D10E00F5F1F4F0F73A8
:100230001127E02E8C8D8E110CC00FB607FCFACF63
:10024000E889F989808185FFF5CFCE010E94C90038
:10025000F1CFEB8DEC0FFD2FF11DE35AFF4FF08234
:100260009FB7F8940B8FEA89FB8980818062CFCF9A
:10027000CF93DF93EC01888D8823B9F0AA89BB89DD
:10028000E889F9898C9185FD03C0808186FD0DC0C8
:100290000FB607FCF7CF8C9185FFF2CF808185FFE9
:1002A000EDCFCE010E94C900E9CFDF91CF91089533
:1002B000FC0101900020E9F73197AF01481B590B71
:1002C000BC018AE691E00C945F008F929F92AF92FE
:1002D000BF920F931F93CF93DF93CDB7DEB7A19754
:1002E0000FB6F894DEBF0FBECDBF19A2423008F49E
:1002F0004AE08E010F5D1F4F842E912CB12CA12C52
:10030000A50194010E94A406E62FB901CA01EA30B2
:10031000F4F4E05DD801EE938D01232B242B252BE3
:1003200079F790E080E0109719F0CD010E94580114
:10033000A1960FB6F894DEBF0FBECDBFDF91CF916F
:100340001F910F91BF90AF909F908F900895E95C9F
:10035000E1CFCF93DF930E945801EC0182E191E05D
:100360000E9458018C0F9D1FDF91CF9108951F921D
:100370000F920FB60F9211242F933F934F935F93D9
:100380006F937F938F939F93AF93BF93EF93FF935D
:100390008AE691E00E94C900FF91EF91BF91AF9171
:1003A0009F918F917F916F915F914F913F912F918D
:1003B0000F900FBE0F901F9018951F920F920FB6BF
:1003C0000F9211242F938F939F93EF93FF93E091BC
:1003D0007A01F0917B018081E0918001F0918101AF
:1003E00082FD1BC09081809183018F5F8F7320916C
:1003F0008401821741F0E0918301F0E0E659FE4F5D
:10040000958F80938301FF91EF919F918F912F9111
:100410000F900FBE0F901F9018958081F4CF1F9200
:100420000F920FB60F9211244F925F926F927F92AC
:100430008F929F92AF92BF92CF92DF92EF92FF92F4
:100440002F933F934F935F936F937F938F939F93DC
:10045000AF93BF93EF93FF938091680190916901EF
:100460009C012F5F3F4F3093690120936801875EA5
:100470009340893C910560F44A9906C081E090E080
:100480009093670180936601109269011092680150
:1004900080916401909165019C012F5F3F4F3093E3
:1004A00065012093640187589341853F9140E0F5B1
:1004B0008AE691E00E94BD00181619068CF58AE6BE
:1004C00091E00E949B008D3459F585E191E00E94F6
:1004D000580120E030E040EA50E460916001709102
:1004E000610180916201909163010E94D30420E038
:1004F00030E048EC52E40E9432066B017C014B0173
:100500005C01AC019B010E949F06882309F459C03D
:100510008BE291E00E94580187E391E00E94A901DB
:10052000109265011092640180915E0190915F01CB
:100530009C012F5F3F4F30935F0120935E018F50EE
:100540009742893E934000F58AE691E00E94BD0003
:1005500018161906ACF48AE691E00E949B008335D8
:1005600079F489E391E00E945801809166019091AD
:100570006701009709F0B9C08BE491E00E94A901DE
:1005800010925F0110925E01FF91EF91BF91AF91C8
:100590009F918F917F916F915F914F913F912F919B
:1005A000FF90EF90DF90CF90BF90AF909F908F9093
:1005B0007F906F905F904F900F900FBE0F901F90A5
:1005C000189526013701E89477F82FEF3FEF4FE7B2
:1005D0005FE7C301B2010E949F0681110DC02FEF9A
:1005E0003FEF4FE75FE7C301B2010E94CE04181648
:1005F0001CF48FE291E08ECF2FEF3FEF4FE75FE4E7
:10060000C701B6010E942D0618161CF483E391E081
:1006100081CF2FEF3FEF4FE75FECC701B6010E949C
:10062000CE0487FDF3CF20E030E0A901C701B60179
:100630000E94CE0487FF0BC06DE28AE691E00E9423
:10064000EB0046015701B7FAB094B7F8B0942AE02E
:1006500037ED43EA5BE3C501B4010E9462044B013C
:100660005C010E944C056B017C010E947B059B0193
:10067000AC01C501B4010E9461044B015C014AE078
:10068000C701B6010E9465016EE28AE691E00E9410
:10069000EB0020E030E040E251E4C501B4010E94EB
:1006A00032064B015C010E944C056B01F12CE12CE0
:1006B0004AE0C701B6010E946501C701B6010E9468
:1006C0007B059B01AC01C501B4010E94610420E0DF
:1006D00030E040E251E40E9432060E944C0590E076
:1006E00080E04AE00E94650117CF019709F048CFEA
:1006F00082E591E043CFEAE6F1E01382128288EED0
:1007000093E0A0E0B0E084839583A683B78384E080
:1007100091E09183808385EC90E09587848784ECD9
:1007200090E09787868780EC90E0918B808B81ECBE
:1007300090E0938B828B82EC90E0958B848B86EC9F
:1007400090E0978B868B118E128E138E148E0895E7
:10075000E0917A01F0917B0182E08083E091760163
:10076000F09177011082E0917801F09179019FEC8E
:10077000908310928201E0917E01F0917F0196E0DA
:100780009083E0917C01F0917D0190819061908354
:10079000E0917C01F0917D01908198609083E091DF
:1007A0007C01F0917D01908190689083E0917C01C3
:1007B000F0917D0190819F7D908390E490937C00E7
:1007C00097E890937A0084BD93E095BD80936E0086
:1007D00089EF87BD83EA8093B00085E08093B10004
:1007E0001092B40088E08AB984E08BB95B9A78945F
:1007F00080917C00887F846080937C0080917A0067
:10080000806480937A0080917A0084FFFCCF28E096
:1008100070E060E080917A00806480937A0080913B
:100820007A0084FFFCCF309178008091790090E0CD
:10083000982F8827830F911D680F791F215051F73A
:1008400083E0759567958A95E1F790E080E00E94D6
:100850007B0520E030E040EA50E40E94320620E0D0
:1008600030EC4FE754E40E94D3046B017C01C0924A
:100870006001D0926101E0926201F092630120E098
:1008800030E040EA5FE30E942D0687FD13C020E0C0
:1008900030E04FE753E4C701B6010E94320620E082
:1008A00030E040EA50E40E94D3040E944505609382
:1008B000B4009ECF10926701109266011092B400AE
:1008C00097CF5058BB27AA270E9479040C94F305B0
:1008D0000E94E50538F00E94EC0520F039F49F3FB6
:1008E00019F426F40C94E2050EF4E095E7FB0C9461
:1008F000DC05E92F0E94040658F3BA176207730754
:100900008407950720F079F4A6F50C9426060EF4DA
:10091000E0950B2EBA2FA02D0B01B90190010C010F
:10092000CA01A0011124FF27591B99F0593F50F427
:10093000503E68F11A16F040A22F232F342F44277F
:10094000585FF3CF469537952795A795F040539577
:10095000C9F77EF41F16BA0B620B730B840BBAF047
:100960009150A1F0FF0FBB1F661F771F881FC2F7B2
:100970000EC0BA0F621F731F841F48F487957795C6
:100980006795B795F7959E3F08F0B0CF9395880F80
:1009900008F09927EE0F9795879508950E94B8055E
:1009A00008F481E008950E94E7040C94F3050E9486
:1009B000EC0558F00E94E50540F029F45F3F29F06E
:1009C0000C94DC0551110C9427060C94E2050E944E
:1009D000040668F39923B1F3552391F3951B550B46
:1009E000BB27AA2762177307840738F09F5F5F4F02
:1009F000220F331F441FAA1FA9F335D00E2E3AF041
:100A0000E0E832D091505040E695001CCAF72BD058
:100A1000FE2F29D0660F771F881FBB1F26173707A9
:100A20004807AB07B0E809F0BB0B802DBF01FF27DB
:100A300093585F4F3AF09E3F510578F00C94DC05D7
:100A40000C9427065F3FE4F3983ED4F386957795A0
:100A50006795B795F7959F5FC9F7880F911D969594
:100A6000879597F90895E1E0660F771F881FBB1FF0
:100A7000621773078407BA0720F0621B730B840B9D
:100A8000BA0BEE1F88F7E09508950E944C05689414
:100A9000B1110C94270608950E940C0688F09F5708
:100AA00098F0B92F9927B751B0F0E1F0660F771F92
:100AB000881F991F1AF0BA95C9F714C0B13091F088
:100AC0000E942606B1E008950C942606672F782F21
:100AD0008827B85F39F0B93FCCF38695779567954D
:100AE000B395D9F73EF490958095709561957F4FB9
:100AF0008F4F9F4F0895E89409C097FB3EF490955F
:100B00008095709561957F4F8F4F9F4F9923A9F0E6
:100B1000F92F96E9BB279395F69587957795679575
:100B2000B795F111F8CFFAF4BB0F11F460FF1BC0B9
:100B30006F5F7F4F8F4F9F4F16C0882311F096E94C
:100B400011C0772321F09EE8872F762F05C06623FA
:100B500071F096E8862F70E060E02AF09A95660FB3
:100B6000771F881FDAF7880F9695879597F908956C
:100B7000990F0008550FAA0BE0E8FEEF16161706AE
:100B8000E807F907C0F012161306E407F50798F016
:100B9000621B730B840B950B39F40A2661F0232B2F
:100BA000242B252B21F408950A2609F4A140A695AB
:100BB0008FEF811D811D089597F99F6780E870E090
:100BC00060E008959FEF80EC089500240A941616C3
:100BD000170618060906089500240A94121613062B
:100BE000140605060895092E0394000C11F48823B9
:100BF00052F0BB0F40F4BF2B11F460FF04C06F5FD5
:100C00007F4F8F4F9F4F089557FD9058440F551FAA
:100C100059F05F3F71F04795880F97FB991F61F07E
:100C20009F3F79F087950895121613061406551FF5
:100C3000F2CF4695F1DF08C0161617061806991F61
:100C4000F1CF86957105610508940895E894BB2756
:100C500066277727CB0197F908950E94B80508F415
:100C60008FEF08950E9445060C94F3050E94E50558
:100C700038F00E94EC0520F0952311F00C94DC056F
:100C80000C94E20511240C9427060E94040670F3CC
:100C9000959FC1F3950F50E0551F629FF001729F21
:100CA000BB27F00DB11D639FAA27F00DB11DAA1F30
:100CB000649F6627B00DA11D661F829F2227B00D7D
:100CC000A11D621F739FB00DA11D621F839FA00D08
:100CD000611D221F749F3327A00D611D231F849F58
:100CE000600D211D822F762F6A2F11249F575040AF
:100CF0009AF0F1F088234AF0EE0FFF1FBB1F661F2A
:100D0000771F881F91505040A9F79E3F510580F0F2
:100D10000C94DC050C9427065F3FE4F3983ED4F373
:100D2000869577956795B795F795E7959F5FC1F796
:100D3000FE2B880F911D9695879597F908950E942F
:100D4000B805880B990B0895A1E21A2EAA1BBB1BAC
:100D5000FD010DC0AA1FBB1FEE1FFF1FA217B30787
:100D6000E407F50720F0A21BB30BE40BF50B661F9D
:100D7000771F881F991F1A9469F760957095809561
:100D800090959B01AC01BD01CF010895EE0FFF1FAF
:0C0D90000590F491E02D0994F894FFCF39
:100D9C0000000000EB005F008C003801BD009B00E0
:100DAC00AF000D0A00436F6E63656E747261636110
:100DBC006F206465206761733A20006E616E006974
:100DCC006E66006F766600250045737461646F2053
:100DDC00646F206D6F746F723A20005061726164A1
:0E0DEC006F0046756E63696F6E616E646F0016
:00000001FF
